:020000040000fa
:080000000001040000000000f3
:020000040000fa
:04000800c607000027
:020000040000fa
:04000c00c607000023
:020000040000fa
:04001000c60700001f
:020000040000fa
:04001400c60700001b
:020000040000fa
:04001800c607000017
:020000040000fa
:04001c00c607000013
:020000040000fa
:04002000c60700000f
:020000040000fa
:04002400c60700000b
:020000040000fa
:04002800c607000007
:020000040000fa
:04002c00c607000003
:020000040000fa
:04003000c6070000ff
:020000040000fa
:04003400ce020000f8
:020000040000fa
:04003800c6070000f7
:020000040000fa
:04003c00c6070000f3
:020000040000fa
:04004000c6070000ef
:020000040000fa
:04004400c6070000eb
:020000040000fa
:040048004e0700005f
:020000040000fa
:04004c00c6070000e3
:020000040000fa
:04005000c6070000df
:020000040000fa
:04005400180200008e
:020000040000fa
:04005800c6070000d7
:020000040000fa
:04005c00c6070000d3
:020000040000fa
:04006000c6070000cf
:020000040000fa
:04006400c6070000cb
:020000040000fa
:04006800c6070000c7
:020000040000fa
:04006c003e0400004e
:020000040000fa
:04007000c6070000bf
:020000040000fa
:040074004c0200003a
:020000040000fa
:04007800fe02000084
:020000040000fa
:04007c00c6070000b3
:020000040000fa
:04008000c6070000af
:020000040000fa
:04008400c6070000ab
:020000040000fa
:04008800c6070000a7
:020000040000fa
:04008c00c6070000a3
:020000040000fa
:04009000c60700009f
:020000040000fa
:04009400ba030000ab
:020000040000fa
:04009800c607000097
:020000040000fa
:04009c004403000019
:020000040000fa
:0400a000c60700008f
:020000040000fa
:0400a400c60700008b
:020000040000fa
:0400a800c607000087
:020000040000fa
:0400ac00c607000083
:020000040000fa
:0400b000c60700007f
:020000040000fa
:0400b400c60700007b
:020000040000fa
:0400b800c607000077
:020000040000fa
:0400bc00c607000073
:020000040000fa
:0400c000c60700006f
:020000040000fa
:0400c400c60700006b
:020000040000fa
:0400c800c607000067
:020000040000fa
:0400cc00c607000063
:020000040000fa
:0400d000c60700005f
:020000040000fa
:0400d400c60700005b
:020000040000fa
:0400d800c607000057
:020000040000fa
:0400dc00c607000053
:020000040000fa
:0400e000c60700004f
:020000040000fa
:0400e400c60700004b
:020000040000fa
:0400e800c607000047
:020000040000fa
:0400ec00c607000043
:020000040000fa
:0400f000c60700003f
:020000040000fa
:0400f400c60700003b
:020000040000fa
:0400f800c607000037
:020000040000fa
:0400fc008a03000073
:020000040000fa
:04010000c60700002e
:020000040000fa
:04010400c60700002a
:020000040000fa
:04010800c607000026
:020000040000fa
:04010c00c607000022
:020000040000fa
:04011000c60700001e
:020000040000fa
:04011400c60700001a
:020000040000fa
:04011800c607000016
:020000040000fa
:04011c00c607000012
:020000040000fa
:04012000c60700000e
:020000040000fa
:04012400c60700000a
:020000040000fa
:04012800c607000006
:020000040000fa
:04012c00c607000002
:020000040000fa
:04013000c6070000fe
:020000040000fa
:04013400c6070000fa
:020000040000fa
:04013800c6070000f6
:020000040000fa
:04013c00c6070000f2
:020000040000fa
:04014000c6070000ee
:020000040000fa
:04014400c6070000ea
:020000040000fa
:04014800c6070000e6
:020000040000fa
:04014c00c6070000e2
:020000040000fa
:04015000c6070000de
:020000040000fa
:04015400c6070000da
:020000040000fa
:04015800c6070000d6
:020000040000fa
:04015c00c6070000d2
:020000040000fa
:04016000c6070000ce
:020000040000fa
:04016400c6070000ca
:020000040000fa
:04016800c6070000c6
:020000040000fa
:04016c00c6070000c2
:020000040000fa
:04017000c6070000be
:020000040000fa
:04017400c6070000ba
:020000040000fa
:04017800c6070000b6
:020000040000fa
:04017c00c6070000b2
:020000040000fa
:04018000c6070000ae
:020000040000fa
:04018400c6070000aa
:020000040000fa
:04018800c6070000a6
:020000040000fa
:04018c00c6070000a2
:020000040000fa
:04019000c60700009e
:020000040000fa
:04019400c60700009a
:020000040000fa
:04019800c607000096
:020000040000fa
:04019c00c607000092
:020000040000fa
:0401a000c60700008e
:020000040000fa
:0401a400c60700008a
:020000040000fa
:0401a800c607000086
:020000040000fa
:0401ac00c607000082
:020000040000fa
:0401b000c60700007e
:020000040000fa
:0401b400c60700007a
:020000040000fa
:0401b800c607000076
:020000040000fa
:0401bc00c607000072
:020000040000fa
:0401c000c60700006e
:020000040000fa
:0401c400c60700006a
:020000040000fa
:0401c800c607000066
:020000040000fa
:0401cc00c607000062
:020000040000fa
:0401d000c60700005e
:020000040000fa
:0401d400c60700005a
:020000040000fa
:0401d800c607000056
:020000040000fa
:0401dc00c607000052
:020000040000fa
:0401e000c60700004e
:020000040000fa
:0401e400c60700004a
:020000040000fa
:0401e800c607000046
:020000040000fa
:0401ec00c607000042
:020000040000fa
:0401f000c60700003e
:020000040000fa
:0401f400c60700003a
:020000040000fa
:0401f800c607000036
:020000040000fa
:0401fc00c607000032
:020000040000fa
:100200002fee20000e7f22000e018800000000006b
:10021000000020000000e000020032000001200089
:1002200020028800140007005a0307000000e000c5
:1002300003003a00a025260001002000020037003c
:100240000000200001002000810f7000010032003a
:1002500014000700000020000000e000020032004f
:1002600000000200000000008058020000000000b2
:100270000040da000000fe004440a90040172000c2
:100280000000e00003003200002020009001880000
:100290004440a800000006008a1f78008b1f7800e9
:1002a00000000600a1028800800478000000eb0036
:1002b0001f003700e284440054a0b4009905ba003e
:1002c000e284440054a0b4009906ba00e2844400d9
:1002d00054a0b4000006eb00476fde00fd07b2003b
:1002e000ae018800636ce10003003a00eaff0700fa
:1002f0000000eb000e003700606ce10008003a00df
:10030000004deb000a05e800020039003420ec0043
:100310000af0a0008b05e900f9ff3e000400370059
:100320006168e100010032000086eb000b0007006d
:1003300019c7ba001905ba000e04e00003003a001c
:100340000a00e000dbff3a0000000600fe07b200f2
:10035000ae0288008a047800f5ff37000cd0a300b5
:10036000e20f4d001c00390089027800354dba00bb
:100370000a05e800020039003420ec000af0a00071
:100380008b05e9000f003200254dba000a05e80090
:10039000020039003420ec000af0a0008b05e900cf
:1003a000080032000c00e0000600320015cdba0053
:1003b0000a05e800020039003420ec000af0a00031
:1003c0008b05e9008984e80054a0b4000b00e0002c
:1003d000e2ff3a00000006009902ba00055d7800cd
:1003e0008b05e900f7ff3200c82ade00055d7800c2
:1003f0008b05e900f3ff32000c00e000f1ff320052
:1004000019ddba00eeff37000458040000000000b8
:100410002c580400000000002e6b040000000000b7
:10042000ea64040000000000ae6504000000000063
:100430003600f800809fbe00829fbe00849fbe00f1
:10044000869fbe003200f8003400f8001000200043
:10045000a001880000202000900188000000fa0020
:100460008960a9009960a900a72207000000000088
:100470009960a8000080fa003400f9003200f90009
:100480004f03be004f02be004f01be004f00be0032
:100490003600f900004006003600f800809fbe00dc
:1004a000829fbe00849fbe00869fbe000000fa00af
:1004b0005135800000802000008060000000e000d6
:1004c0000c003200ab66a9000010270021002000bc
:1004d0002b35070040c4b300532b070025c8bf00cd
:1004e0000040e80025e8b70000902000d10320007c
:1004f0002335070051358000004020000080600057
:100500000000e0000c003200ab46a90000102700fc
:10051000210020001a35070090c4b300422b0700c9
:1005200026c8bf000040e80026e8b7000090200081
:10053000d103200012350700513580000010200043
:10054000008060000000e0000c003200ab06a90053
:100550008ea0a9009ea0a90010c0b3002ae8b70091
:10056000afe1a900a421ef0020a12700500d8800d1
:100570008b60a9009b60a800afe1a8008a60a90079
:100580000080fa004f03be004f02be004f01be00c4
:100590004f00be003600f900004006003600f800ab
:1005a000809fbe00829fbe00849fbe00869fbe00cb
:1005b0003200f8003400f80010002000a00188008c
:1005c00000202000900188000000fa008860a90047
:1005d00040962000433107000080fa003400f90003
:1005e0003200f9004f03be004f02be004f01be00b3
:1005f0004f00be003600f900004006003600f8004b
:10060000809fbe00829fbe00849fbe00869fbe006a
:100610003200f8003400f80010002000a00188002b
:1006200000202000900188000000fa008a80a900c4
:100630009a80a9000010270021002000d034070074
:1006400040c4b300f82a070025c8bf000040e800f6
:1006500025e8b70000902000d1032000c83407002f
:100660009a80a8000080fa003400f9003200f900f6
:100670004f03be004f02be004f01be004f00be0040
:100680003600f900004006003600f800809fbe00ea
:10069000829fbe00849fbe00869fbe003200f8008d
:1006a0003400f80010002000a00188000020200085
:1006b000900188000000fa008ba0a9009ba0a9006f
:1006c0000010270021002000ad34070090c4b300c3
:1006d000d52a070026c8bf000040e80026e8b7007a
:1006e00000902000d1032000a53407009ba0a800a3
:1006f0000080fa003400f9003200f9004f03be0018
:100700004f02be004f01be004f00be003600f90090
:1007100000400600801f78003200f8003400f80026
:1007200010002000a0018800002020009001880017
:100730000000fa008ea0a9009ea0a90010c0b3007e
:100740002ae8b700afe1a900a421ef0020a127000b
:10075000500d88008b60a9009b60a800afe1a80045
:100760000080fa003400f9003200f9004f007800f0
:10077000004006003600f800809fbe00829fbe0049
:10078000849fbe00869fbe003200f8003400f8004f
:1007900010002000a00188000020200090018800a7
:1007a0000000fa008b60a900afe1a9002ac8bf00d1
:1007b0000080fb00e10f500003003200e20f500008
:1007c0001a00320024003700f134800000102000ad
:1007d000008060000000e0000c003a0024c8bf0068
:1007e0000080fb000000e9004f00de0000407800c0
:1007f00024e8b70024c8bf008a1f07002a68ef005a
:100800008ea0a9009ea0a8001300370020c0b3004e
:100810002ae8b700a421ef0040422f00500d8800c5
:100820008b60a900afe1a8000b003700f134800015
:1008300000102000008060000000e0000200320094
:1008400007290700a126a9002a68ef008ea0a900a9
:100850009ea0a800000000000080fa003400f9000b
:100860003200f9004f03be004f02be004f01be0030
:100870004f00be003600f900004006003600f800c8
:10088000809fbe00829fbe00849fbe00869fbe00e8
:100890001000fa008a20a900e04280000000e00079
:1008a0006a013200e1428000010f78001e007800ea
:1008b00090007800110798001e00780020b8900082
:1008c000e50f5000e8003200e50f50000c003e003c
:1008d000e20f500037003200e20f500003003e00ec
:1008e000e10f50000d00320065013700e30f5000aa
:1008f00084003200e40f5000c40032006001370071
:10090000e70f500027013200e70f500014013900b3
:10091000e80f500034013200590137001e00780002
:1009200090007800210798001e007800e0f0910008
:100930001e00780020e8910080cf500006003900aa
:100940001e00780060e891000004e0000200320020
:1009500010002000010037000000eb006047980005
:100960002e009000b00090001e00780060e0910022
:100970000080fb0000004000004178006e409000c5
:100980000004e0000200320010c0b3000100370094
:100990000040eb00004071000080fb008008780000
:1009a0001e0078002100200021b898005f68ef0049
:1009b000330137001e00780090007800410798004e
:1009c00010c0b3005fe8b7004e0090001000900028
:1009d000100078000000e00016003d004e0090007e
:1009e00010007800ce00900091007800910078000f
:1009f0000120a000010878005e68ef001e0078006a
:100a00008100200021b898001e00780000b89000f6
:100a10000000e0000f0132001e00780000b99000d5
:100a20001e00780010b890001100200002000100a4
:100a30001301370010c0b3005ee8b7001e00780055
:100a4000e0f091001e00780020e8910080cf500077
:100a5000120031004e009000b00090001e0078009f
:100a6000c0b190001e00780060f091000081fb0092
:100a700002814100124178000281fb008208780067
:100a80008040e8001e00780061f099001e007800a8
:100a90003100200021b89800f90037001e007800ce
:100aa00060e891000004e0000b0032004e0090006e
:100ab00010007800ce00900091007800910078003e
:100ac0000130a000010878001e00780051002000cd
:100ad00021b89800ea0037004e009000100078001e
:100ae000ce00900091007800910078000120a000d5
:100af000010878001e0078008100200021b89800cd
:100b0000df0037001e007800900078005107980041
:100b10005e00900010009000100078000000e000df
:100b20000b003d005e00900010007800de00900099
:100b300091007800910078000120a0000108780061
:100b40001e0078008100200021b89800cc003700fa
:100b50001e007800e0f091001e00780020e891006f
:100b600080cf50000f0031005e009000b000900078
:100b70001e007800c0b190001e00780060f0910067
:100b80000081fb0002814100124178000281fb00dc
:100b9000820878008040e8001e00780061f099002b
:100ba000b70037001e00780060e891000004e00004
:100bb0000b0032005e00900010007800de00900014
:100bc00091007800910078000110a00001087800e1
:100bd0001e0078004100200021b89800a8003700ce
:100be0005e00900010007800de0090009100780018
:100bf000910078000120a000010878001e00780014
:100c00008100200021b898009d0037001e00780068
:100c100090007800610798006e0090001000780046
:100c200010007800620060000000e0008b003a00d5
:100c30006e009000b00090001e00780060e091000f
:100c40000080fb0000004000004078000004a0008d
:100c50000080fb00800878001e0078002100200042
:100c600021b89800860037001e0090001000900008
:100c700010007800620060000000e000790032009f
:100c80001e00780060b190001e00780070f09100a6
:100c90008080fb00810041001e0190004201900015
:100ca0001201780002417800824878008040e80014
:100cb0001e00780071f099001e007800f0f091009d
:100cc0001e00780060e8910080cf500012003100d3
:100cd0001e009000100078009e00900091007800a7
:100ce000910078000150a100010878001e009000da
:100cf000100078009e00900091007800910078002c
:100d00000140a000010878001e007800610020006a
:100d100021b898005a0037001e009000100078009b
:100d20009e00900091007800910078000150a00092
:100d3000010878001e009000100078009e009000ce
:100d400091007800910078000140a000010878002f
:100d50001e0078007100200021b89800480037007c
:100d60001e009000100078001000780070006000f5
:100d70000000e0003d003a001e00900010007800e6
:100d80009e00900091007800910078000130a00052
:100d9000010878001e0078005100200021b898005a
:100da000370037001e009000100078001000780017
:100db000700060000000e0002e003a001e0090006d
:100dc000100078009e00900091007800910078005b
:100dd0000120a000010878001e007800810020009a
:100de00021b89800260037001e0078009000780097
:100df000710798007e0090001000780010007800c5
:100e0000640060000000e0001c003a001e00780052
:100e10009100200021b898001e00780000b89000d2
:100e20000000e000060032001e00780000b99000cb
:100e30001e00780010b890008000eb000200010056
:100e40001e007800f43007000d003700000000009d
:100e50000b00370000000000090037000000000010
:100e60000700370000000000050037000000000008
:100e70000300370000000000010037000000000000
:100e80000080fa004f03be004f02be004f01be00bb
:100e90004f00be003600f900004006003600f800a2
:100ea000809fbe00829fbe00849fbe00869fbe00c2
:100eb0000200fa008900a90068c8bf00e14f4000a5
:100ec0002a003200104280000000e8001042880032
:100ed00044c8bf000004e000080032001142800056
:100ee00030428000808f50000f003900032d070032
:100ef0004468ef004228ef000b00370011428000e9
:100f000040428000808f5000070039003ec8bf007b
:100f10008080fb0068c8bf00e02c070010c0b30051
:100f200044e8b7004228ef00004280000000e000e3
:100f30000f00320000428000e10f50000400360034
:100f4000004280000000e9000042880008003700ed
:100f50004f2d070010002000000f78005142800044
:100f60000e007800010001000100370000000000c1
:100f70000080fa004f03be004f02be004f01be00ca
:100f80004f00be003600f900004006000040da00c5
:100f90000000fe000000050014002000e8043700f7
:100fa000f4ff2f00e60437000001be003f000700f9
:100fb0000470a70003f0a1006509b100160032001b
:100fc0000d0035006828e10006003500f0ff2f0015
:100fd000f1ff27000300e00013003b0001002800a0
:100fe0000000050000004000818048008502e90003
:100ff000fcff3a0008003700f88f420002003c0076
:101000008000eb00000005008100d1000080d300cb
:101010008502e800fcff3a000300e00002003b000c
:1010200060001000e0801800000006000001be0013
:101030001e0007000470a70003f0a10003f8a3003e
:1010400013003a006509b1001000320009003500b4
:101050006928e100020035000100280000000500b9
:1010600000004000818048008502e900fcff3a0052
:1010700000000600f88f4200050035008100d10015
:101080000080d3008502e800fcff3a000000060063
:101090008000eb00000005004f89de00820178002f
:1010a000c20437006011b800d0043700c70ade0060
:1010b000f107b200f50fb20008003200e1cf4200a4
:1010c000020032000170a00024000500810f7000b2
:1010d000010032000408050044000500810f700083
:1010e00002003a00140005008502e90000004000fb
:1010f00081c04800fcff3b000170a00024000500f7
:101100006022b800060220000000d0008180d200da
:101110000482d2008582d2000000a00002025200a8
:1011200083825a00030031000202420083824a0097
:101130000000a1000603e900f3ff3a0000000600ea
:1011400007f82700078361000638e10004003a0031
:10115000f7072000878361008703710001003a00d0
:1011600003f0a200889fbe008a9fbe008c9fbe0035
:10117000470ade000480a100c71ade000580a10036
:10118000070028000785600087856100f70f2000b1
:101190000720e1009e0032000728e1009c00320099
:1011a000010678000400e000b4003200f7072000d8
:1011b000878060000170a0000500e000c0003200e0
:1011c000f7072000878161000370a0000506520028
:1011d0000f003a000b50e1000b0032000308e10061
:1011e00002003a000200e1007e00320002045000da
:1011f00083845800040031000001fd008101fd00de
:101200008402fd008a05fd006044b800210037001b
:101210000520e10005003d000001fd008101fd0009
:101220008402fd008a05fd00050652007a60e10097
:10123000050035000170a1004722dd0084807000a8
:101240008a807000630037006044b800ef026600d7
:1012500007ff2f00070666000500e00006003400c7
:10126000f08312008714dd000511de00071bdd008e
:10127000060171008519de007060e100050035008f
:101280000904780082047800030178008001eb00f3
:10129000700656000b50e10003003a0002004000c7
:1012a000838048000400370060041400e0841c00c0
:1012b00002005800838058000188a3000600320015
:1012c0008100d1000080d3008984d3000884d3003a
:1012d0000402e800270037000178a30025003a0047
:1012e0000100e000030032008186cf0069865600cd
:1012f0000a0037008c0020000000e00004003a00e3
:1013000009007800880478000004eb0070025200a5
:101310008086cf000d0646000c06e9007060e100f3
:101320000600350080007800090078008804780005
:101330000004eb0070065600700252000c00e00042
:101340000c0034008c08dd00f00316000703de00fb
:10135000868070000c00dd00074bde000600700088
:101360008c4cdd000743de00868474000c44dd00f5
:101370000c0252006120e100200035006101600094
:101380000700280087816400f7ff27008783640037
:10139000070374000300e0000600320082037300bc
:1013a000040032000000e800e08048000188a3004b
:1013b0000e003a00f70f20000720e1004a003d0030
:1013c0000170a1004722dd00810072008a80700058
:1013d0000000be004f06be004f05be004f04be0019
:1013e000000006006000b800faff37008100d1005d
:1013f0000080d3000402e800eeff3700040178000b
:1014000089017400a10107008a807000f1ff370094
:10141000f7010700070278000001fd008101fd00cf
:10142000f301070087027800850372000778a300a4
:10143000040032000001fd008101fd0006020700ea
:10144000e4ff3700850362000768a300080032004c
:101450000b50e10003003200f0ff2f00f1ff2700e6
:10146000dcff37000001fd008101fd00d9ff3700de
:101470000468a300d7ff3200faff3700f8ff270007
:10148000888360000b003a000000e00009003a0089
:101490008303640082837300020032000200be00f6
:1014a000ccff37000b50e100ceff3a000200be0037
:1014b000c8ff370014002000810064003eff3700a1
:1014c000f8ff27008883610004003a000200e00072
:1014d00002003a008c007800beff370015002000a3
:1014e0008301640039ff370001f827000000200065
:1014f00081007500b7ff3700889fbe008a9fbe003d
:101500008c9fbe001b0020000202be000586680002
:1015100006002800060666004709de00f20fb2004a
:10152000820032000243e80080003200c729de005a
:10153000f30fb2007d0032000343e8007b0032006d
:10154000f107b2000170a000f507b2000570a0001d
:10155000c708dd004903de00868070004700dd001b
:10156000c72add004923de00868272004722dd00a3
:101570000305510004035000858358000300310027
:1015800000004000818048000a05e9008c1f7800b7
:101590008a9fbe000400500085805800040242006b
:1015a00085824a0000004000818048000005eb0071
:1015b0000004be006033b8000406be000d48e10020
:1015c00056003100110009004dccd8000c01b800c4
:1015d0000d02b8008481410060824a00828353007a
:1015e00003045c0084845c0060055d000a00e00088
:1015f00025003a00800578000d40e10049003100e7
:101600008800780007007800110009004d88d80094
:101610000c01b8000d02b8008481410060824a00cc
:101620006003110083835b0004045c00e0845c00c1
:101630000900e00021003a004f01be000300e00075
:101640002b003200e3016000070673008c817100fb
:1016500001003200640070004200de004e5edd00da
:101660000c007000c258de0001e0a00083010700fa
:10167000cf017800818071004f06be004f05be008b
:101680004f04be00000006008c8343000d044c0094
:10169000e0844c0060054d000000e9000a00e00015
:1016a000d4ff32008c8343000d044c00e0844c00d6
:1016b00060054d000000e900ceff37000c03430039
:1016c0008d834b0060044c00e0844c000000e90076
:1016d0000900e000d8ff32000c0343008d834b006b
:1016e00060044c00e0844c000000e900d2ff3700a9
:1016f0004200de004e5edd000c007000c258de00cd
:1017000001e0a000cf0178000300e000daff320022
:1017100060001000e0801800d7ff3700f0ff2f00b6
:10172000aaff3700f0ff2f00b9ff37000404be0006
:101730002f010700870678000004fd008104fd00ea
:101740002b010700078366000678a3000300320020
:101750000960a7000800be002c0037000d78a30028
:10176000020032000800be00280037000778a300fe
:1017700026003a0001f0a10009f0a1000668a300cc
:1017800003003200f1ff2700f0ff2f00baff3700ff
:101790000d68a300030032000800be008c807000ba
:1017a000b5ff37000768a30007003a000648a3000a
:1017b00003003200f1ff2700f0ff2f00aeff3700db
:1017c0000d48a300030032006000b8008c80700058
:1017d000a9ff37000748a3000400320001f82700e2
:1017e000000020008c807000a3ff37007601070006
:1017f0000004fd008104fd0002057800720107006d
:101800000802be008a01780059ff37000160a0007d
:10181000120220005243880097ff37000100e000c9
:10182000120032000500e00010003200889fbe0068
:101830008a9fbe008c9fbe000006eb0001f8a3004b
:101840000300320060001000e08018000cf0a000df
:1018500005f8a3000300320060021200e0821a00c3
:101860000cf0a2008005eb0041ff37006000b800db
:1018700002000500038368000700280007036300d7
:10188000470ade000480a100c71ade000580a1001f
:10189000f70f20000720e100420032000728e10096
:1018a00040003200889fbe008a9fbe008c1f7800d7
:1018b000f107b200f307b2000400e0006400320058
:1018c0000170a0000500e000680032000370a00075
:1018d00085054200eb07b1000204b8000302b8001e
:1018e0008484440060854a00020ab800848444006d
:1018f0000a854a00030ab8000405450004003300c5
:101900000804d0008984d2000a85d2008b05e90042
:101910006158e1003d00350002102000090161001e
:101920000308200089816100f70720008783640095
:1019300008867300c84cde00c853dd00878474003d
:101940004855de000300e000060032008203760006
:10195000040032008904e80060054d000a88a300f5
:101960000c003a00f70f20000758e10044003d004a
:101970000a70a100c75ddd000a8575008a0073004a
:10198000090078004f0678004f05be004f04be00e6
:10199000000006000a05d1008984d3008b05e80009
:1019a000f0ff3700881f78000604780090000700d9
:1019b000070278000001fd008101fd008c00070096
:1019c00087027800850372000778a30005003200c3
:1019d0000001fd008101fd009f0007004f04780019
:1019e00000000600850372000748a30003003200d0
:1019f000f0ff2f00f1ff2700f8ff37000000200064
:101a000001f8270088807000f4ff37008801780013
:101a10004848dd00808171004848de00c850dd0084
:101a200001007000c850de00060478000b01780049
:101a30001600070088807000d2ff37000500e00024
:101a400005003200170020003a0007009dff370014
:101a500081037000f9ff3a00860078004f06780095
:101a60004f05be004f04be00000005008303710057
:101a7000f9ff3200270020002e00070094ff3700f6
:101a800001f8270086807000f4ff37000100e000b5
:101a900026003200610111007810e10023003c00b3
:101aa0006022b8007010e100040035008002780068
:101ab000010078008000eb00700151000200e0009e
:101ac0000900340070031100062add00822ade00be
:101ad0008603dd00878272000200de00860bdd00d7
:101ae000070070008208de0084817100f4ff270087
:101af00004826200848171000400280084826200f4
:101b00006102600005f0a60000000600048271007a
:101b1000070032000000e800e080480000000600f6
:101b20000002be006000b800efff37006000b800a0
:101b300000000600889fbe000004eb006138e10051
:101b400016003a000100e00008003a00c800de007c
:101b50004800dd00880020000100e00003003a009a
:101b6000c800de004800dd00680444008184cf0026
:101b7000e9845400060034008908dd00f083140075
:101b80008703de00878070000900dd00090444003f
:101b9000610214004f04be00000006000300e000d4
:101ba00008003a00c811de004811dd00880020005e
:101bb0000300e00003003a00c811de004811dd0018
:101bc000680444008384cf00e98454000600340094
:101bd0008919dd00f08314008713de00878171000e
:101be0000911dd0009044400e1021400e9ff370097
:101bf0002700200001f0a70017002000470bde009f
:101c0000f60fb200040032000643e8000a0032007a
:101c10004702b3000000060001037800f607b20097
:101c20000603700002003a000703b300000006003c
:101c30008702b3000000060001037800f607b20037
:101c400006037000020032000770a00000000600ca
:101c50000760a000000006000478a3000400320022
:101c60000578a300030032000168a30001003a00d8
:101c70000200be000160a0000000060081017000ab
:101c8000270032008002eb0001f8a30003003200bd
:101c900060001000e080180015002000f40720000c
:101ca0000202420020003400f70320008703600096
:101cb0000604200000036300020820000001610008
:101cc0004700de00c909dd0000807100c708de00a2
:101cd0000600e000080032008703710006003200b1
:101ce0001000b0000180b0000188a30002003200a3
:101cf000c108de000402e800f107b200f30f200083
:101d00000320e10003003d004722dd008100720056
:101d10002900370001f827000000eb0026003700fb
:101d20006000b80000000600680212007f20e10099
:101d3000020034006000b8001f0037006011b800d6
:101d40007020e10004003500800178000100780077
:101d50008000eb00700252000400e0000900340033
:101d6000f00312000719dd008419de000703dd000f
:101d7000868171000400de00070bdd0006007000a4
:101d80008408de00f7ff2700838363008703710068
:101d90000600280003036300070032000700e0008c
:101da00003003a006101600002817300020032000a
:101db0001000b0000180b0000500a6000000060081
:101dc00001f0a000000006004f0ade004709de0017
:101dd000f107b200f20fb2000b003200f207b100bf
:101de0000170a000c708dd00c901de00838070001b
:101df0004700dd000400a60000000600600010009f
:101e0000e080180000000600810f700001003a0019
:101e1000000006008182cf000500e00010003e00b7
:101e20008082cf00ee8242007028e1000400390079
:101e300007003e00800078000000eb000e00370035
:101e4000708312008600de000500dd000a00370006
:101e5000708352008600dd000000eb0006003700b2
:101e6000e28252008508dd00708312000603de0066
:101e7000868070000500dd007507b0000501ea00ee
:101e80000400a6000000060060001000e0801800ba
:101e900000000600889fbe008a9fbe0030044200fa
:101ea000b0844a0030054b0090854b006000b100c3
:101eb0000898be000a90be000440e10005c8e10099
:101ec00006d0e10007d8e1000200310068004000c0
:101ed0001008e8004f05be004f04be0000000600d9
:101ee000889fbe008a9fbe003004be002005be0051
:101ef0000418540005985c0006185d0007985d0002
:101f0000110020000440e10005c8e10006d0e10016
:101f100007d8e100010039008000eb0010881000b4
:101f20004f05be004f04be00000006001200fa007c
:101f3000889fbe008a9fbe008c9fbe00e0b79f00b6
:101f4000f1b79f0082bf9f0093bf9f000605be00b0
:101f50000404be000000eb00d0b79f00c0b79f0094
:101f6000b0b79f00a0b79f0090b79f000006780011
:101f70005fb19700cfb09700820141003fb097005a
:101f80000200e00004003d00370007007e8057009b
:101f9000c0ff070003003700330007007e805700b2
:101fa000cfff0700dfb697000d00e0000c00350002
:101fb0006fb29700ffb297000fbb97009fbb9700cf
:101fc00010002000010020006011b8000002720023
:101fd0008182720002037300838373001b00070079
:101fe0000c06e80001042000810f5600e0ff3a00d3
:101ff0000d00e00004003d000802be000a03be0020
:102000007e805700a3ff07005fa897000000e00054
:1020100005003a001fb29700afb297003fb3970098
:10202000cfb39700090007006fb09700ffb097008b
:102030000fb997009fb997004f06be004f05be002d
:102040004f04be000080fa000000060001000700f7
:1020500000000600a4b79f00b5b79f00c6b79f0059
:10206000d7b79f00000006004f09de008281710093
:10207000b3b79f004f01de00818040008280700076
:10208000a1b79f008fb097004f09de00000040000d
:102090000200700090b79f007fa897004f01de00fc
:1020a000818040008280700081b79f000d00070092
:1020b0004f3ade000000400004007000f0af9f00c7
:1020c000080007000402420085824a0006034b0014
:1020d00087834b00dfff07000802be000a03be0033
:1020e000000006002fb29700bfb297004fb39700d1
:1020f000dfb3970000000600881f7800180020005a
:10210000881f780089ff07008f87e9004f04780057
:1021100000000600801feb0084ff07008f87e900a6
:1021200000000600889fbe008a9fbe00e00f50009e
:10213000e08f5800e00f5900e08f59000c003d007f
:102140006044b8006055b8000000540081805c0015
:1021500002015d0083815d0018002000150007006a
:1021600008003d00180007000004eb0005003700e0
:102170000004eb000f00070002003d001200070002
:1021800018002000dcff07000800e0000600320015
:102190006022b8006033b8000000520081805a000d
:1021a00002015b0083815b004f05be004f04be004f
:1021b00000000600e00f5200e08f5a00e00f5b00c5
:1021c000e08f5b00000006006044b8006055b80076
:1021d0000402540085825c0006035d0087835d0075
:1021e00000000600889fbe008a9fbe008c1f7800fa
:1021f000e00f5000e08f5800e00f5900e08f5900c9
:102200000d003d006044b8006055b8000000540067
:1022100081805c0002015d0083815d001c00200064
:102220000820e10009a8e1000ab0e1000bb8e100d4
:102230000d003d00080037000006eb00e00f5200e3
:10224000e08f5a00e00f5b00e08f5b0006003d006e
:102250006044b8006055b8000402540085825c00f8
:1022600006035d0087835d00aaff07000c00e00005
:10227000060032006022b8006033b800000052004f
:1022800081805a0002015b0083815b004f06780069
:102290004f05be004f04be0000000600889fbe0030
:1022a0008a9fbe008c1f78000006eb00e00f5000f4
:1022b000e08f5800e00f5900e08f590007003d0003
:1022c0006044b8006055b8000000540081805c0094
:1022d00002015d0083815d001c002000e00f5200c0
:1022e000e08f5a00e00f5b00e08f5b0007003d00cd
:1022f0006044b8006055b8000402540085825c0058
:1023000006035d0087835d000c00a20094000700b7
:102310000c00e000060032006022b8006033b80014
:102320000000520081805a0002015b0083815b0043
:102330004f0678004f05be004f04be0000000600a7
:10234000889fbe008a9fbe00841f78007c00070023
:102350004f00780011003300f0ff2f00838f6c00d6
:1023600006003b00040565000a00a70008003700ce
:1023700009f0a6001000200008003700820f54006a
:10238000838f5c00030039001000200001003e0034
:102390000000200009f0a7000000ea004f05be0081
:1023a0004f04be000000e00000000600881f780017
:1023b000030478000300e00007003d006000100007
:1023c000e080180060011900e081190002003b0064
:1023d00001f02d00030037000400070008f0a700fb
:1023e00001f0a0004f04780000000600889fbe00a6
:1023f0008a9fbe0000827000040271000482710096
:10240000260032000004be000200be006011b800c9
:102410006b092000950220000182cf000a003900dc
:102420000541b1000082cf00070039000541b1002d
:102430000982cf00040039000541b1000882cf00b5
:10244000010039000541b10005425200120032007e
:102450000a003b0082817100610164008100d100ab
:102460000080d3008984d3000884d3008b05e80062
:102470000442e800f7ff3a00070037000804440070
:1024800089844c0000004800818048008b05e900e9
:102490000442e900f9ff3a00030007004f05be00bf
:1024a0004f04be000000060081002000618055003e
:1024b0000b003d000b00200061fe2f000100e10039
:1024c0001d00340082817100610164008904d10023
:1024d0000884d3000000e800faff3a0071002000f1
:1024e0006100640003007000020060000900320017
:1024f00061044400e0844c000988a5000500320016
:102500008b05e8006808e10002003a008904d10068
:102510000884d300f20f20000258e10005003d00be
:10252000c75ddd00f907b2008980750008007800fa
:10253000000006000bf827008b0078000000050063
:102540000004be00d9fa07000003be000405be0067
:102550000200be00d5fa0700844f75000000060097
:10256000889fbe008a9fbe008c9fbe000404b800f6
:102570000506b8008904460060854e000606b800ce
:102580000a054600e0854e000706b8008b054600a8
:10259000040eb800890446000a854e00e0854d000f
:1025a000050eb8000a0546008b854e00060eb800e1
:1025b0008b0546000416b8000a0546008b854e00c0
:1025c0000516b8008b054600041eb8008b054600b2
:1025d0000800be000a01be004f06be004f05be0047
:1025e0004f04be00000006000000fa00688157009a
:1025f000cfb89700880507000080fa0000000600a9
:10260000d000070029010700030407003704070072
:10261000b3040700db04070083050700f505070086
:10262000a00537000000fa0068815700cfb8970076
:10263000790507000080fa0000000600c1000700cd
:10264000f503070029040700a5040700cd040700cf
:10265000e8050700930537000000fa00688157007d
:10266000cfb897006c0507000080fa000000060054
:102670001e043700010037000201e9000200e000fb
:102680000500320030427800b1417800834f52009b
:10269000f9ff320001003700000005000480fb0054
:1026a0008381fb00030050000000060080017800d9
:1026b00002003700b15978000201e9000200e00091
:1026c000fcff3a0000000600889fbe008a9fbe0003
:1026d000800478000200e0005b00320001407800d6
:1026e000814c780082814400f1f99f00e20f510093
:1026f0005500360091449800a1449800e1f99f00ec
:10270000d1f99f00e60f51004f003600b144980008
:10271000c1f99f00e80f51004b0036000905ea009f
:10272000630565000a8444000a055100c1ff2f00bb
:10273000010565000080fb008000eb001210200006
:1027400013102000000c0700008cbe000a0144009a
:1027500060b99f0071b99f00e80f55003a0036003c
:102760002004980031049800400498005104980017
:1027700020b99f0031b99f0040b99f0051b99f0017
:10278000f80f55003000360060049800710498007e
:10279000000c9800110c9800200c9800310c980047
:1027a000400c9800510c980020b19f0031b19f005f
:1027b00040b19f0051b19f0060b19f0071b19f0077
:1027c00000b99f0011b99f006401640078014100c5
:1027d00002044400020555006011b8000203be0067
:1027e0000002be000403be006022b80000007200b8
:1027f0008180720002017300838173001000370032
:10280000009cbe000294be00400498005104980051
:102810006204980073049800000c9800110c980052
:10282000220c9800330c9800400c9800510c980032
:10283000620c9800730c98000a02b1000802b00004
:10284000ff0f5500eeff3e00090078004f05be0067
:102850004f04be00000006004400fa00889fbe003e
:102860008a1f78000004be000205780094bf9f0014
:10287000a5bf9f00b6bf9f00c7bf9f000000eb0031
:10288000c09f9f00a8af9f00d89f9f000080eb00d3
:10289000b0af9f006022b8006033b80060fb2f002b
:1028a0000f004000d00907001fba9700afba970089
:1028b0003fbb9700cfbb9700120020008a00780032
:1028c00060fb2f000f004000ae0707000900e0008a
:1028d000060032003fb29700afaa97000482420080
:1028e000df9a970005025200840c44004f057800df
:1028f0004f04be000080fa0000000600f4ff2f0025
:10290000f5ff2f000403be00d3ff37006022b8009c
:102910000600200007002800cfff3700f4ff2f003b
:10292000f5ff2f006033b800cbff37000400200014
:10293000050028006033b800c7ff3700f3ff3700f9
:10294000eeff3700ec874700889fbe008a9fbe00dd
:102950008c9fbe008e1f780000067800010478006e
:10296000180790002805900098067800cdb79f00c2
:10297000b80590003202be002203be000400be0073
:102980000601be004f18de006011b8008000eb00a9
:10299000d0b79f00e1b79f00f2b79f0083bf9f00b1
:1029a000800478000900e000060032006000b800f2
:1029b0006011b800040250008582580006035900d7
:1029c000878359000e00e000020035000d10a100c1
:1029d000cdb79f000900e00005003a004fb0970016
:1029e0000028a30002003a000038a30002003200d1
:1029f0008a00e900010037008a007800f88157005a
:102a0000a200200008007800620307000900e0002f
:102a100003003a00cfb097000128a300080032005d
:102a20000000e90000814500b1c2b3000900e000e8
:102a300001003200d1c2b30001497800050037001f
:102a40000138a300030032000000e90001c2b30016
:102a500081757800480190000201e90000015100f1
:102a6000808045004fb297008a0178000c00780002
:102a70002b0507009c0090000188a3000400320091
:102a800098009000810f500001003d000100780087
:102a90004f0778004f06be004f05be004f04be0032
:102aa000cf00b10000000600000006004200fa005e
:102ab000889fbe008a9fbe008c9fbe0020079800a2
:102ac000110f9800034f980011007800400f9800f4
:102ad00091009000610f98009e099000a301900062
:102ae000330f98001e0a90004402900014079800cb
:102af0009e0a9000b5029000052798003204be009f
:102b00002205be006022b8006033b8000800be0095
:102b10000a01be00b70a07000000e00003003d0004
:102b20000bf0a200d0c2b300040037004e0b90009f
:102b30000628a30009003200b0c2b3008e23900023
:102b4000804b78003e0890000000e900700f98006c
:102b500011002000510f9800100037004e0990001e
:102b60000238a3000900320000c2b3008e21900099
:102b7000804978003e0a90000402e900740f980032
:102b800015002000550f9800040037003e0b900000
:102b9000760f98008003eb00570f98000800be00e6
:102ba0000a01be00c0ff0700f4ff2f00f5ff2f0051
:102bb000f6ff2f00f7ff2700040260008582600007
:102bc00006036100878361006000b80002002000f6
:102bd00003ff27000020e10001a8e10002b0e100ae
:102be00003b8e10011003a000e4890008000fb009d
:102bf0001104b1000e219000de0990000300410095
:102c0000f98f500002003e00e1ec20000100370087
:102c100021ed2000b109070020ed2000b6090700d2
:102c20005e0a900004014000150037000020e1001a
:102c300001a8e10002b0e10003b8e1001300360092
:102c40008e4a90008500fb001104b1000e23900015
:102c5000de0b900007004300f98f500002003e0099
:102c600061ed200001003700a1ed20009b09070065
:102c7000a0ed2000a0090700de089000010140003f
:102c80004e0a9000be099000500237006022b80042
:102c90006033b8000800be000a01be00550a0700f4
:102ca0000000e0006a0032006022b8000600200048
:102cb00007ff2300441798005517980066179800df
:102cc000771798008006eb000800be000a01be00de
:102cd000001f9800111f9800221f9800331f9800b2
:102ce0000e269000070037008d06e8000802be009f
:102cf0000a03be00441798005517980066179800fd
:102d0000771798006022b8000600200047022400d0
:102d10004e109000de1090006e119000fe11900099
:102d20008f0b07000004be000205be000002be00bb
:102d30000203be000e1890009e1890002e199000fd
:102d4000be1990002b0a07000000e000e6ff3d00de
:102d50000c2798000006eb004e149000de14900043
:102d60006e159000fe1590002500370040ed2f00f5
:102d7000808f560019003d000c00e00016003a005c
:102d80006022b80006002000073524000e189000cd
:102d90009e1890002e199000be199000700b07002d
:102da0000002be000203be00041f9800151f980019
:102db000261f9800371f98006022b80006002000e8
:102dc000073524000800be000a01be00640b07009e
:102dd0000004be000205be001c0020006022b800f6
:102de00006002000470224000800be000a01be00c1
:102df000ac0a07000004be000205be008d06e90013
:102e00000802be000a03be000e1890009e18900033
:102e10002e199000be199000f60907000000e0008e
:102e2000d2ff35000800be000a01be00401798001e
:102e30005117980062179800731798000e1c9000a5
:102e40009e1c90002e1d9000be1d900008003700b3
:102e50006022b8000600200007ff230044179800f6
:102e60005517980066179800771798008006eb00b2
:102e70008e4a90000500fb0037090700104f9800ac
:102e80006e0b9000600020000600e000010035009d
:102e90006e08900071c6b3009e4b900081cf530026
:102ea0000a003a00ee0890000100e000cf01320075
:102eb000cf0137008d0f5000d3013c00001f980058
:102ec00052c6b300425f98001e0037009e49900032
:102ed000435f98000200370064c6b300445f980067
:102ee0000000e800001f980060c6b300ce5a9000b2
:102ef00080cf520013003a000d00e00008003d00b2
:102f00006000b8000200200003ff23004017980073
:102f10005117980062179800731798008006eb000d
:102f200061c6b300415f980070c6b3001e499000af
:102f3000804f5100030032008e1990008d814100b6
:102f4000031f98004e129000de1290006e13900046
:102f5000fe139000441f9800551f9800661f9800ac
:102f6000771f98000800be000a01be0000179800f5
:102f70001117980022179800331798000006eb00ed
:102f80000802be000a03be005407980065079800b7
:102f900076079800070f9800310037004e1a90000e
:102fa000de1a90006e1b9000fe1b90000e10900029
:102fb0009e1090002e119000be119000390a07005b
:102fc000910c07000004be000205be00b209070014
:102fd00080027800250f98004e1a9000de1a9000ab
:102fe0006e1b9000fe1b90000800be000a01be0090
:102ff000db0a07000e1290009e1290002e13900024
:10300000be139000d60907000002be000203be00f6
:1030100007f0a200041798001517980026179800cb
:10302000371798006022b8000600200047022400ed
:103030004e189000de1890006e199000fe19900056
:10304000180a07000002be000203be00441f9800d9
:10305000551f9800661f9800771f98000c06e8001f
:103060008e1a9000850f5600ccff35005e0490004c
:10307000ee0490007e0590008e0d90006022b80056
:1030800006002000470124004e189000de18900032
:103090006e199000fe199000b10a07000002be00f0
:1030a0000203be00441f9800551f9800661f980039
:1030b000771f98000e1090009e1090002e11900027
:1030c000be1190004b0907000000e0000f00350022
:1030d0004e1a9000de1a90006e1b9000fe1b9000ae
:1030e0000e1090009e1090002e119000be119000c6
:1030f000400907000000e00011003a00ae0a90000d
:103100000508a300080032000d0037006000b80079
:103110006011b800401f9800511f9800621f98006e
:10312000731f9800060037006022b8006033b800b3
:10313000441f9800551f9800661f9800771f98003d
:103140004e1a9000de1a90006e1b9000fe1b90003d
:103150000800be000a01be00870907000002be0089
:103160000203be0004179800151798002617980050
:10317000371798006022b80006002000470224009c
:103180004e109000de1090006e119000fe11900025
:10319000730a07000004be000205be000002be0064
:1031a0000203be000e1090009e1090002e119000a1
:1031b000be119000140907000000e000090035006e
:1031c0008d06e80060c6b300ce5a900080cf520052
:1031d00008003a000e1b90000603e800061f980046
:1031e000110037004e149000de1490006e15900010
:1031f000fe15900050c6b3004e599000804f51000c
:1032000009003a000802be000a03be00441f9800ed
:10321000551f9800661f9800771f98008002eb00ea
:1032200045179800070037000800be000a01be00dd
:10323000401f9800511f9800621f9800731f98004c
:103240004d1798005e0e90000001eb00220f9800d1
:1032500032079800520798000d0f78006a00370077
:103260004e1a9000de1a90006e1b9000fe1b90001c
:103270000e1090009e1090002e119000be11900034
:1032800088090700e00b07000004be000205be002d
:1032900001090700e90f50000100340090002000f0
:1032a000ce0990000348a3000c003a000000e000a3
:1032b0000a003a0071c6b3001e4a9000814f5200c6
:1032c00006003a00ce1290000500e00003003d0029
:1032d0002e0b90008606e80023003700be03900006
:1032e0000700e0000c003a00ce1090000100e00062
:1032f00009003d00e1c2b3000e21900001717e0083
:103300000c06e800fe0990008301e900730f9800a5
:1033100014002000340798008e2290000c81420097
:10332000ae0e9000850178000300370001c3b300a2
:10333000015978008d06e9000d00e000fbff3a001e
:10334000032798002e0b9000060646000043b000ad
:1033500080717e000c06e8000680ea00fe0b9000fb
:1033600080834300770f98004e1a9000de1a900079
:103370006e1b9000fe1b90000800be000a01be00fc
:10338000f70907000e1290009e1290002e13900075
:10339000be139000f20807000002be000203be0048
:1033a00007f0a20004179800151798002617980038
:1033b000371798006022b80006002000470224005a
:1033c0004e189000de1890006e199000fe199000c3
:1033d000340907000002be000203be00441f98002b
:1033e000551f9800661f9800771f9800ce12900016
:1033f0008502e900451798005e0390000603e80087
:10340000560798002d0f9800de0390000e189000cc
:10341000808f530005003d009e0890004100900001
:1034200065005000800f56008dff39009e06780021
:103430003e0190000200e00007003a00ce09900033
:103440000348a30004003200e0c2b3000e22900043
:1034500000727e000c06e8008e2290000c80420074
:103460000048eb0051c6b3004e5b9000814f530003
:1034700038003a009e0390008700e9000041eb000d
:1034800082f278008001eb000d00e00002003d00b8
:103490008d06ea00130020002200200001037800be
:1034a000fe0a90008e239000000478000a00370086
:1034b00001037800a4002000110009008406d80050
:1034c00001027800800678000443b00084737b001a
:1034d0000201e9008502e9008600e9000d00e00034
:1034e000f3ff3a000200e000f1ff3c00750f980086
:1034f000072798000800780001824300b2c2b30099
:103500000300e00001003200d2c2b300024a78009a
:103510000101e9008e219000828041008e4a9000d6
:103520000502fb001404b10053c6b300f90f5200aa
:1035300001003e0053c4b300834878007e0b900026
:103540000683e900760f9800820f560001003d00c7
:1035500062070700ce0b900063806300e20f50000b
:1035600015003a007e0890000000e00012003400d0
:103570000e209000600707008e21900004003700a5
:103580007e09900082804100e37078000000e9002d
:10359000de0a9000850f5000f9ff3d0003279800d8
:1035a000058041007e0990000103200046fc0700d1
:1035b0000003eb00360f98000e2090004e07070026
:1035c0004e0a9000be099000000178008e20900005
:1035d0002e009000520207004f06be004f05be00ad
:1035e0004f04be000080fa0000000600100020001a
:1035f000e48f46002ffe3d00001f980057c6b30021
:10360000475f98004ffe37000d00e00032fe3500a6
:10361000001f980042fe37000200fa00889fbe009b
:103620008a9fbe00800578000104780002007800bf
:10363000180190002805900098007800b1bf9f0005
:10364000b80490000200e000020035000110a10063
:10365000b1bf9f00ea815700820020008a007800f5
:103660003002be002003be000800780049000700b9
:103670003fb99700f0006100030032000000e9004c
:1036800001c3b300817478003fb99700e80061007e
:10369000030032000000e90001c2b3008174780029
:1036a000480190000201e9000001510080804400bf
:1036b0003fba97008a0178000b00780018020700d3
:1036c0009b0090000188a300040032009800900045
:1036d000810f500001003d00010078004f05be0041
:1036e0004f04be000080fa0000000600ea87470091
:1036f000889fbe008a9fbe008e1f7800000478005d
:10370000030078007287570084e2260055c7260020
:10371000049fbe00c3962200030f78006c875700f9
:10372000004feb0011059000a10490009105780076
:103730000200e000020032000207780001003700ba
:10374000728757000000e00002003a000e00780087
:10375000e90607000a00e000030035008a0f500068
:10376000010036000a0078000b0278008901780019
:10377000000178008e00780008007800e80107005a
:103780004f0778004f05be004f04be00af00b100e8
:1037900000000600f4874700889fbe008a9fbe0095
:1037a0008c9fbe008e1f78000605be000404be007c
:1037b00081bf9f0082b79f00f3b79f00b0009000c9
:1037c000e1b79f001301780092b79f009006900028
:1037d000400090000000e900000678000d00e000c5
:1037e00001003d001d0020008040eb00efb197007c
:1037f000817178001e0020001f0037000c06e900d0
:103800000fb09700cf80de006109b900a0b79f001c
:10381000b1b79f00c2b79f00d3b79f000203be009d
:103820000002be000800be000a01be0039fa07000f
:10383000000778000e4078000043b000efb097001a
:1038400080707e008d06e9000fb997000201e90043
:1038500082bf9f002fb29700bfb297004fb397006f
:10386000dfb397000800be000a01be0022fa07007d
:103870000205be000004be000c00e0000d00340094
:10388000e00f5400e08f5c00e00f5d00e08f5d0012
:10389000daff3a000d00e000d8ff3c008fb9970036
:1038a0000300e000030034001fb097000018a300dd
:1038b000d2ff3a000e00e00002003a00ffb097008d
:1038c0001140a1000c0078004f0778004f06be00a1
:1038d0004f05be004f04be004f01b10000000600be
:1038e0000200fa00889fbe008a9fbe000005780093
:1038f000010478000200780018019000a8049000ec
:1039000098007800b1bf9f00b80590000200e00069
:10391000020035000110a100b1bf9f00ea815700ed
:10392000a2002000890078003002be002003be0003
:103930000800780097ff0700480190000201e900a5
:1039400000015100808045003fba9700890178004e
:103950000a007800720107009a0090000188a30015
:103960000400320098009000810f500001003d00db
:10397000010078004f05be004f04be000080fa0031
:1039800000000600fa874700889fbe008a9fbe009d
:103990008c9fbe008e1f78008004780001047800a0
:1039a000820578001801900028059000180778001b
:1039b000b80090000200e000020035000e10a100e7
:1039c000010037001200200070006700e0b79f0080
:1039d000090032003b02be002b03be00e00f520084
:1039e000e08f5a00e00f5b00e08f5b0002003200c6
:1039f0008a86e900010037008a067800e80267003d
:103a0000f5b79f00010032008d06e9003b02be00c1
:103a10002b03be00e4af9f00f5af9f0086b79f0069
:103a200097b79f00480690000c06e9000040eb00a5
:103a300080707e00efb297007fb297008903780014
:103a400081047800d8af9f00020478008bbf9f00ec
:103a50008a057800034578002a0037000c06e90043
:103a60006fab97006f006300e90f500002003c004d
:103a70000003b000010037007005b0000a03fb002e
:103a80001604b100f90f53000c003e00000378004b
:103a90000650a0001606b100f90f530007003e00c3
:103aa000b4b79f00a5b79f00c7b79f0031060700b6
:103ab000cfb39700afb297003fb2970080747e00fb
:103ac0000804e9008d06e9006fa89700ffa8970099
:103ad0000fb197009fb19700460020008301d100ed
:103ae0000281d3008180d3000080d3000603e90067
:103af000faff3a00e0af9f00f1af9f0082b79f004e
:103b000093b79f00e10f56000f0034006fa8970095
:103b1000ffa897000fb197009fb19700e00f5000ea
:103b2000e08f5800e00f5900e08f5900cbff3a00ba
:103b30000800e000c9ff3c000d00e0000200340076
:103b40000e18a300c5ff3a0089007800f4b79f0063
:103b5000870478005fac97008a4178000b057800f5
:103b60008fbd97000500e000100032003b02be0050
:103b70002b03be00e4af9f00f5af9f0086b79f0008
:103b800097b79f00e00f5200e08f5a00e00f5b00f4
:103b9000e08f5b00050032000c06e90083707e00b8
:103ba0000c06e90000c3b30080707e00ffb29700ee
:103bb0000500e000030032000c06e90000c2b3007b
:103bc00080707e00480190000201e9000c01510064
:103bd0008c8040000e0278008a017800090078008d
:103be000cf000700990090000188a3000400320074
:103bf00098009000810f500001003d000100780006
:103c00004f0778004f06be004f05be004f04be00b0
:103c1000af01b100000006008201780001017800c8
:103c2000f1ff2700da053700881f780000047800cc
:103c300000082000808f5000170035001008200079
:103c4000808f50000b00340030082000808f50001f
:103c500011003a0092007800688050000009780056
:103c60003002be002003be00049cbe000694be00cd
:103c70000700370092027800648052000009780043
:103c80001000be0065060700009cbe000294be0046
:103c900010002000010037000000eb004f04780006
:103ca0000000060084082000848f50001d003200b0
:103cb0000d003c0014082000848f500027003200c3
:103cc00002003c0004082000040037002408200003
:103cd000848f50003400320044082000848f50004c
:103ce00043003a0036003700040a2000848f500059
:103cf0002700320004003c0004092000848f50009b
:103d00003b003a0028003700020c2000828f500050
:103d10002f003200020f2000828f500034003a0042
:103d20002b0037009380e9000200e000050032001c
:103d3000810978001102fb00cfa2de00612bb900df
:103d40002800370081097800114278000482fb00c6
:103d50008002eb006033b8002200370013027800c5
:103d6000e40052000200e000050032008109780002
:103d70001102be004fabde00860378001900370049
:103d8000810978001102be006033b80015003700c9
:103d90009380e9008109780011027800cfa2de004b
:103da000612bb9000f00370093027800e8805200c1
:103db000810978003102be002103be0009003700ee
:103dc0009380e9000200e00002003200f1ff3700ba
:103dd0009380e90081097800110278008002eb00ed
:103de0006033b8000498be000690be0010000500c5
:103df0000000050044082000848f50002500320098
:103e000008003c0014082000848f50001400320089
:103e100024082000848f5000240032000408200071
:103e20000c00370004092000848f50001f0032006e
:103e300004003c0084082000848f500024003a00d5
:103e40000e003700040a2000848f50001100320059
:103e5000040c2000848f50001d003a000d00370034
:103e60009380e900810978009100780001087800ca
:103e7000cf91de008288be00140037009380e900f5
:103e80008109780091007800010878008248780064
:103e90000e0037009380e9008109780091007800d6
:103ea0000108780082087800080037009380e90054
:103eb0008109780091007800010878006112b9004a
:103ec000612bb9008498be008690be0010000500ea
:103ed00000000500889fbe000004780048009000a4
:103ee00082047800808f540001003600800478003e
:103ef0000901780058009000ecf907005800900084
:103f00000900400050049800c800900089845000c7
:103f1000490498000048eb004f04be000000060072
:103f2000f2874700889fbe008a9fbe008c9fbe001c
:103f30008e1f780080047800010578000204780064
:103f4000830578006107620002003a008b0f54007d
:103f500008003900080178008a007800090078001c
:103f6000dcff07008b0f5400020039008805780041
:103f70001e003700088655000c017800f00f56002f
:103f80000100360002012000010220007e8057005f
:103f9000cdf907008c0678000500370002012000eb
:103fa000fe80570009007800caff0700f08656001f
:103fb000ef8f5600f9ff3e004461de0000ff2f0046
:103fc0000091b90002014600fe8057000900780008
:103fd000c0ff07000e00e00004003a00080178006e
:103fe0008a00780009007800baff07000b0078000b
:103ff0004f0778004f06be004f05be004f04be00bd
:104000002f01b100000006000000050000000500bf
:1040100000000500000178000040eb008080fb00fc
:104020008180400083eb200063c278000404e0003c
:1040300003003a0090eb200060c07800000006000a
:1040400092017800934f520004003a0090eb200058
:1040500060c078000309e800010037000040e80074
:10406000ea4f5000edff360000000600f6874700db
:10407000889fbe008a9fbe008c9fbe008e1f780066
:1040800000057800010478008305780004067800b4
:104090000000eb00c0b79f008080eb00d1b79f000d
:1040a000e0b79f00f2b79f000008200080bf9f008c
:1040b00098007800010078008004eb0001003700d0
:1040c0008904e800304178000204e0000300320077
:1040d00053c2b300834f5100f9ff3a000900e000da
:1040e00004003200090178000a00780079ff070017
:1040f000188c44001807780050c2b3009e4f10007f
:104100003f013a000e07e8000e0c7800100037005f
:10411000cfb097000100a0000b003700cfb0970090
:104120000110a00008003700cfb097000120a000c8
:1041300005003700cfb097000130a0000200370023
:10414000cfb097000140a000c1b79f00000ce8006d
:104150001800780090407800b2c2b30082cf5000bf
:10416000f1ff320007003c0002c2b30082cf5000d2
:10417000f0ff320032c2b30082cf500007003a0095
:10418000efff3700d2c2b30082cf5000e0ff320011
:1041900002c3b30082cf5000e0ff3200a2c2b300de
:1041a00082cf50000d003a00000ce8001c80e900ae
:1041b000000e780010007800e0b79f000000e000db
:1041c0000f003d00cfb097000100a200c1b79f00d3
:1041d0000000ea00e0b79f0009003700390107003e
:1041e000e0b79f0001003700000ce80018007800dd
:1041f0009000fb000103b100e98f5000faff360088
:104200004fb097000008a300020032000010a10088
:10421000c0b79f0018007800e1c2b30090cf100033
:1042200016003a008000eb00d1b79f000000e800c4
:10423000000c7800a1c2b30090cf100006003a0035
:10424000000ce8001c80e900000e780010007800e7
:10425000d0b79f00090037001a010700d0b79f00b0
:1042600001003700000ce800180078009000fb0007
:104270000103b100e98f5000faff36000800780012
:1042800064ff070080467800180078001000fb00eb
:104290003104070091062000810f500038003200e1
:1042a00012003c0041062000810f50003400320013
:1042b0000a003c0011062000810f5000200032004f
:1042c00031062000810f5000a00032005102200072
:1042d000810f5000bc003a00b40037007106200086
:1042e000810f5000b8003c00880037000107200013
:1042f000810f50005c00320007003c00e106200006
:10430000810f50007a003200f1062000810f50002a
:10431000ad003a003900370051072000810f5000ee
:104320002700320081072000810f50004200320038
:1043300031072000810f5000a3003a008f003700a2
:104340008d80fb000c01780000fe2f000f00400064
:1043500035fe07000000e000a800320018007800d9
:10436000000ce8009041780002fe2f000f01410090
:10437000f88057000a00780024ff07000e0037007d
:104380008d80fb008c0178001200200000fe2f00c1
:104390000f00400043fe07000000e00097003200dd
:1043a000180ce80002fe2f000f014100f8805700b2
:1043b0000a00780063f90700808444009000370009
:1043c0008d80fb008c0178000001eb0000fe2f00c7
:1043d0000f00400033fe07000000e00087003200bd
:1043e000180ce80002fe2f000f014100f880570072
:1043f0000a0078003afd0700efff37008d80fb00d0
:104400008c0178000001eb0000fe2f000f0040003f
:1044100024fe07000000e00078003200180ce800dd
:1044200002fe2f000f014100f88057000a007800bb
:1044300079fc0700e0ff37008d80fb008c017800dd
:104440000001eb0000fe2f000f00400015fe0700ea
:104450000000e0006900320018007800000ce8005d
:10446000904178001c0037008c0178000001eb00bf
:10447000010f200000fe2f000f00400009fe070082
:104480000000e0005d003200180ce8000fb097005b
:104490009fb097002fb19700bfb19700e00f500079
:1044a000e08f5800e00f5900e08f590009003a00f2
:1044b000cfb597006fb4970000eb20008e03070084
:1044c0000b027800880178000001780001eb2000e1
:1044d0004700370083c7b30002fe2f000f014100e1
:1044e000f88057000a00780026fd0700b2ff370069
:1044f0000b8144008d80fb008c01780000fe2f00b2
:104500000f0040003bfe07003c0037008d80fb00a1
:104510000c01780000fe2f000f004000c2fd0700d4
:104520000000e0003500320018007800000ce800c0
:104530009041780002fe2f000f014100f8805700e3
:104540000a00780059f907009bff370000c8b30044
:1045500080cf560029003a00180ce8001c80e900c2
:10456000000e780010407800e0df9f00130020006c
:10457000e2fd2f000f0141000800370000c8b30022
:1045800080cf56001d003a00180ce8001c80e9009e
:10459000000e78008001eb0010017800f8805700d1
:1045a0000a00780051fc070083ff370000c8b30001
:1045b00080cf560011003a00180ce8004fb2970067
:1045c000efb19700080037000e0c78000000eb00f8
:1045d000c0b79f00e0b79f000080eb00d0b79f00fe
:1045e0000002eb00840178001200200061eb200043
:1045f0000a0078004afe07006fff3700180ce80039
:10460000090078004f0778004f06be004f05be0036
:104610004f04be006f01b100000006008200fa00e6
:10462000889fbe008a1f7800000578008204780009
:10463000c13f9f000004eb00100037000902780022
:1046400088017800a2f72f000f01410081f72f00a9
:104650008f8040000a00780084fe070008004000b8
:10466000880f500004003d00b0042000f076880060
:104670000084eb0004003700000478004f389700f6
:104680001004e000edff3a00080078004f057800c4
:104690004f04be000080fa00000006008000780091
:1046a0001000200002022000828f5000040032001f
:1046b000e9805000e48f5000010036000000eb005c
:1046c00000000600889fbe008a1f78000005780061
:1046d0000a047800984478000805e8000900fb0007
:1046e000eeff07000000e000f9ff3a00b0c2b3009f
:1046f00080cf540005003200d0c2b3008000eb0030
:1047000080cf540005003a00020037008000eb0023
:1047100001003700110020000804e8000000eb0051
:10472000030037006a02b900020052000003b00023
:104730003801fb0003fd2f0082814100e98f510009
:10474000f8ff36000100e00001003a000000ea0036
:104750004f0578004f04be0000000600800078007e
:104760001000200002022000828f5000040032005e
:10477000e9805000e48f5000010036000000eb009b
:10478000000006006f02b000889fbe008a9fbe0036
:104790008c9fbe008e1f780000067800010778000d
:1047a00082047800d4af9f00e5af9f00f6af9f0072
:1047b00087b79f0040022000800f57007d003e0019
:1047c000e10f57007b0032007c089000bc10900085
:1047d000810f500003003100b086fb00700e98007e
:1047e000030037000c0078002402070080067800e0
:1047f0000d007800d9ff07000000e000f2ff3a004a
:10480000b0022000808f5600050032008002eb00cd
:1048100085af9f00d0022000808f560010003a0024
:10482000dd82b2000df0a7008d06ea008d06e900da
:10483000cfeede008daf9f007c089000bc10900092
:10484000810f500003003100b086fb00700e98000d
:10485000030037000c00780008020700800678008b
:104860000e00e00002003200f00f570042003a0054
:1048700000032000808f56003c003a007c08900026
:10488000bc109000810f500003003100b086fb0087
:10489000700e9800030037000c007800f701070045
:1048a000800678008d0078000150a000800720006d
:1048b000808f50002a003a007c089000bc109000c5
:1048c000810f500003003100b086fb00700e98008d
:1048d000030037000c007800e8010700800678002c
:1048e00000d620006d4078000e012000ef4f5000f0
:1048f0008d0036003c1090000000e0000300320004
:10490000fc0890008100e900710e98000900e000a9
:104910000c0032006022b8006033b800d4af9f00b2
:10492000e5af9f00f6af9f0087b79f000000e00053
:10493000a10132007c0890000000e900700e980090
:104940009d0137006022b8006033b8000c00780089
:10495000a50107006000b8006011b800920137009f
:104960000e00e0009e013200170037000e00e0004c
:1049700001003a00ae00200000d620006d40780013
:104980000080fb008e0f50000f0039003c1090009b
:104990000000e000030032007c0890000000e90005
:1049a000700e98006022b8006033b8000c007800e8
:1049b0008d01070060012000f07688006022b800b9
:1049c0006033b80071013700ea0f570056003a0013
:1049d0000004eb000d0078000d0037006a44b900b8
:1049e0000800400008fd2f0000044400fc0890006f
:1049f0003c109000808f5000030031003180fb009c
:104a0000710e9800020037000c0078009b0107002f
:104a100001fd2f0080804000e98f500003003e0020
:104a200081992100810f5400ecff36008006780048
:104a30008004eb006055b800120037001faa9700f1
:104a4000afaa97003fab9700cfab9700000442009e
:104a500081844a0002054b0083854b007c0890004e
:104a6000bc109000810f500003003100b086fb00a5
:104a7000700e9800030037000c0078007f010700db
:104a80008006780005fd2f008582460095af9f00c7
:104a9000e98f520009013e0090992900919929005f
:104aa00092992900939921000040e10001c8e1009a
:104ab00002d0e10003d8e100db003e00a4002000aa
:104ac000050020006033b8000800be000a01be00e7
:104ad000f2f507001faa97008002eb006033b800d0
:104ae00094af9f00a5af9f00b6af9f00c7af9f00d8
:104af0000482ea008582ea000683ea008783ea00ee
:104b0000d4b79f00e5b79f00f6b79f0087bf9f000f
:104b10000400e1000588e1000690e1000798e1004b
:104b2000c6ff3600c00037000e00e9000e0060002e
:104b3000030032000004eb000d0078006500370030
:104b40007770b9004500de006700600061d5200085
:104b5000e14078008100fb000004eb000d007800cc
:104b6000810478000b0037000944dd000104740063
:104b7000fc0890003c109000808f50000300310032
:104b80003180fb00710e9800020037000c007800a5
:104b90003a01070001d62000e0c078008180fb00c8
:104ba0008e8f500003003100f27f2000820f5400ee
:104bb000edff360080067800890078008004eb0065
:104bc0006055b800f4ff2f00f5ff2f000403be006e
:104bd000010078000000e900050033008703d100e0
:104be0000683d3008582d3000482d300f9ff370007
:104bf0000d00780081067800200037000d01780054
:104c00000201e900050033000804d0008984d200c5
:104c10000a85d2008b85d200f9ff37000180fb00a6
:104c20008000eb006011b8000804700089847000f7
:104c30000a0571008b857100fc0890003c10900003
:104c4000808f5000030031003180fb00710e98000e
:104c50000a0037000c00780094b79f00a5b79f00aa
:104c6000b6b79f00c7b79f0004010700cfb39700f6
:104c70003fb39700afb297001fb2970001d6200054
:104c8000e0c078000181fb008e0f51006000310010
:104c90000440e10005c8e10006d0e10007d8e100ca
:104ca000d6ff36005a0037000ec4b9000884400011
:104cb000fc0890003c109000808f500003003100f1
:104cc0003180fb00710e9800020037000c00780064
:104cd000ea00070001d62000e0c078008180fb00d8
:104ce0008e8f500003003100b2712000820f5400fb
:104cf000edff3600800678008004eb006055b800b8
:104d000098af9f00a9af9f00baaf9f00cbaf9f00a5
:104d1000120037000002440081824c0002034d0063
:104d200083834d0094af9f00a5af9f00b6af9f0057
:104d3000c7af9f007c089000bc109000810f50000e
:104d400003003100b086fb00700e980003003700ae
:104d50000c007800c90007008006780000d620000b
:104d60006d407800e0cf9f00804278000580fb0016
:104d70008e0f5000280031006174b8006055b800f3
:104d80000802be000a03be00f0ff2f00f1ff2f0053
:104d90000001be00d8f407001faa9700afaa970031
:104da0003fab9700cfab97000020e10001a8e100e6
:104db00002b0e10003b8e10017003e000802be00a7
:104dc0000a03be001fa89700afa897003fa997004d
:104dd000cfa9970031f50700efca97000584fb00c3
:104de0008004eb006055b8000882ea008982ea007e
:104df0000a83ea008b83ea000400e1000588e100f1
:104e00000690e1000798e100c2ff3600020037007b
:104e100080067800040037001fac9700afac970005
:104e20003fad9700cfad970000d620006d407800d1
:104e30000080fb008e0f5000200031000d00780034
:104e400009003700fc0890003c109000808f500053
:104e5000030031003180fb00710e98000200370022
:104e60000c0078008500070001d6200060c07800a3
:104e70000080fb008e0f5000f2ff3900200220005e
:104e8000f07688005fab97000608a30007003200a9
:104e90005fac9700efac97007fad97008fb59700a0
:104ea0008003eb0087af9f00040037005fac9700e2
:104eb000efac97007fad97008fb597003c10900046
:104ec0000000e000030032007c0890000000e900d0
:104ed000700e98005fa89700efa897007fa9970031
:104ee0008fb197000040e10001c8e10002d0e1006d
:104ef00003d8e1001c0039000008a3000e003a00ae
:104f00008fa897000100e0000b003a00200220006b
:104f1000f07688005faa9700efaa97007fab970012
:104f20008fb3970061025200e0825a0060035b0079
:104f3000e0835b00150037005fa89700efa897009b
:104f40007fa997008fb197000040e10001c8e10000
:104f500002d0e10003d8e100030036002002200067
:104f6000f0768800140037008fa89700e18f40008a
:104f70000b003a006000b8006011b8000802500051
:104f8000898258000a0359008b835900d4af9f00cf
:104f9000e5af9f00f6af9f0087b79f000600370080
:104fa0000800be000a01be00d0af9f00e1af9f0025
:104fb000f2af9f0083b79f005fa89700efa897000c
:104fc0007fa997008fb197004f0778004f06be006a
:104fd0004f05be004f04be006f02b1000000060086
:104fe0008e002000d0fe3700889fbe008a9fbe0042
:104ff000441098005510980066109800771098009b
:10500000f00890002004900001045400cfc4de009a
:10501000614db90008189800191898002a189800ce
:105020003b189800e00f5200e08f5a00e00f5b0041
:10503000e08f5b000c00320000149000010454006b
:10504000cfc4de00614db9000440e10005c8e100b5
:1050500006d0e10007d8e1000300340004824000dc
:105060003410980002003700801090003110980032
:105070004f05be004f04be00000006002800fa00e5
:10508000889fbe008a1f780000047800f80890000e
:105090002800900000805000081a9000981a900094
:1050a000281b9000b81b9000cf80de000402400057
:1050b0008582480006834800878348004810900096
:1050c000d810900068119000f8119000e00f500087
:1050d000e08f5800e00f5900e08f590005003200c2
:1050e0000020e10001a8e10002b0e10003b8e10006
:1050f0000d003d0008007800d4b79f00e5b79f0081
:10510000f6b79f0087bf9f00c600070080047800a5
:105110005fb29700efb297007fb397008fbb970005
:105120000900e00016003d0078089000a8009000fb
:10513000808050004f89de000482400085024900d3
:105140000603490087034900041c9800151c9800b9
:10515000261c9800371c980030149800f0ff2f0090
:10516000f1ff2f000001be00401498005114980078
:1051700062149800731498008084eb00520037008a
:1051800061004200e0804a0060014b00e0814b007a
:1051900090bf9f00a1bf9f00b2bf9f00c3bf9f00f1
:1051a00048129000d812900068139000f8139000f5
:1051b00094b79f00a5b79f00b6b79f00c7b79f00e1
:1051c000e00f5200e08f5a00e00f5b00e08f5b00c1
:1051d00028003200780d9000081190000a0151005b
:1051e0006112b900612bb900d4af9f00e5af9f00f9
:1051f000f6af9f0087b79f001fb09700afb0970032
:105200003fb19700cfb197001fba9700afba970090
:105210003fbb9700cfbb970004005000858058002b
:10522000060159008781590090af9f00a1af9f00f0
:10523000b2af9f00c3af9f005faa9700efaa97008d
:105240007fab97008fb397000020e10001a8e10039
:1052500002b0e10003b8e100060034009fb29700fd
:105260001fbb970006815200820045003114980050
:10527000020037008813900037149800280190002e
:10528000f8089000810151001fba9700afba97004b
:105290003fbb9700cfbb97004f98de0004824100d0
:1052a000850248000603480087034800041c980054
:1052b000151c9800261c9800371c9800828f5000ff
:1052c00001003e00f9f89f00090078004f057800c2
:1052d0004f04be000080fa0000000600881f78001e
:1052e00000047800080078006300070008007800d8
:1052f0004f047800000006008000780004003700aa
:105300003104e00002003a000000510000000600f5
:10531000010178000108a300f9ff3a00810178003b
:1053200031017800f4ef2f00020242000281ea000e
:10533000020162000408280004016100f7ff320046
:1053400083007800010178003104e000fdff3a009d
:105350000000510000000600f1fb2f00808040009b
:10536000f98f500001003e000050a0000000060030
:10537000f9ff3700f1f92f0080804000f98f5000cd
:1053800001003e00f005b20000000600f9ff370002
:10539000f28747008e1f7800020278000301780030
:1053a0000000e00002003200000778000100370032
:1053b000728757008002eb000100e000010032001c
:1053c0008102e90070805700060009000018eb0018
:1053d0000080eb0080bf9f002310200093bf9f0040
:1053e000aebf9f00b1bf9f00c5bf9f000100e0009e
:1053f00003003d00b1042000f1768800060037006c
:10540000004feb00eebf9f00debf9f0084007800de
:1054100070805700380007004f0778002f01b10057
:10542000000006000200fa00889fbe000004780019
:10543000080078003e0007008084eb000000e000d8
:1054400009003a009811900012002000e6805700f1
:105450000800780003000100e10f500002003a004c
:105460002ff897008084fb00090078004f04be00ed
:105470000080fa0000000600010178008001780039
:10548000008268000408a300050032001300370002
:1054900032407800805978000004e00014003200a7
:1054a000030278000208a300f9ff3a000300780025
:1054b000010037000318780082007800b2017800fc
:1054c000f5ef2f00838242000382ea00048262002b
:1054d0000508280005026200f6ff3200000278008d
:1054e00031417800025878000204e000fbff3a00e6
:1054f00004007800000006000200fa00881f78000f
:1055000000047800e2bf9f00648157000800780023
:1055100042fc0700980090000148a30001003200ff
:105520000080eb004f0478000080fa0000000600c5
:10553000881f780000047800486090008040e900ef
:1055400000c0700040649800d8009000680090008f
:10555000808f500005003600b80990000001eb0074
:105560008200780008007800030001000000eb00d2
:10557000200c980060049800500498009800900057
:105580000118a300030032000140a000110498009c
:10559000080037002801900038009000000041000a
:1055a00000149800700c98000000eb000138a30074
:1055b000010032000080eb004f047800000006007c
:1055c000020037000000060000000500fdff070094
:1055d000007780008000eb00fbff07000077800071
:1055e0008000eb00f8ff0700007780008000eb00f0
:1055f000f5ff37008f1fd1007a0207008f87e9007f
:105600000000e00000000600809feb00750207002c
:105610008f87e9000000e0000000060081037800a9
:10562000a2ee07000001be006000b8000478a300ed
:1056300013003a006220e10015003e000d00390021
:105640008301d1000281d3008180d3008301d10086
:105650000281d3008180d3008301d1000281d30075
